:1000000012C072C029C028C058C026C025C024C054
:1000100023C022C021C020C01FC01EC01DC01CC0E4
:100020001BC01AC019C011241FBECFEDCDBF10E0F8
:10003000A0E6B0E0E4EDF3E002C005900D92A63634
:10004000B107D9F720E0A6E6B0E001C01D92AA36BC
:10005000B207E1F75BD0BCC1D3CF98E087FF09C0FE
:10006000949AC09A880FB1998160C0989A95B1F717
:1000700008959498F6CF95980895959A089596982E
:100080000895CF93DF93D82FC62FF5DF8D2FE5DFAF
:100090008C2FE3DFDF91CF91F0CF8295982F96954B
:1000A00096959373880F880F8C7C982B892F869553
:1000B0008575990F9A7A892B08951F921FB61F9202
:1000C00011248F93A895809167008F5F80936700BC
:1000D0008C3328F01092670081E0809366008F9146
:1000E0001F901FBE1F9018958F938FB78F939F936C
:1000F00080916800909169000196909369008093C7
:1001000068009F918F918FBF8F911895CDB7DD2794
:10011000C152CDBFA89588E19FE00FB6F894A8958D
:1001200081BD0FBE91BD8AB38C7F8ABB8BB38360C8
:100130008BBB81B3847F81BB82B38B6082BB87B36F
:10014000877087BB88B3886F88BB479A83E880BF76
:1001500081E083BF8FE786BFBA9A8A9892988BB75F
:1001600080648BBF85B78C7F826085BF1FBC8BE0AE
:100170008EBD88E09DE39BBD8ABD89B7806489BF41
:100180008E9A8D9AB89A8C9AB99879DF76DFC09852
:1001900083EF91E00197F1F700C0000062E180E297
:1001A00070DF60E081E26DDF60E082E26ADF62E0E2
:1001B00083E267DF60E084E264DF66E086E261DFBD
:1001C0006EE387E25EDF60E08CE35BDF60E08DE39F
:1001D00058DF51DF80E341DF81E73FDF81E93DDF29
:1001E0008DE73BDF8BE639DF48DF49DF60E180E206
:1001F00048DF789485B78F7A85BF4E0197E1890EE5
:10020000911C6E01EAE1CE0ED11C80916600811531
:1002100009F4D6C010926600F8946090680070905F
:1002200069001092690010926800789462E180E29F
:1002300028DFF2E3FA95F1F783E6A82E80E0B82EE6
:1002400090E6292E90E0392E42E4498374E17A83C6
:1002500082EC8B8381EE8C838EE68D8382E58E83A8
:100260001F8293E3988782E0898781E08A87E6E0AE
:10027000EB8783E08C8788E08D8787E48E878DE429
:100280008F87E88B8FEF898B8A8B8B8B9C8B7E8AF9
:100290006D8A85E58F8B888F898FF50141915F018C
:1002A00049A345E595E59E012F5F3F4F2901F901DF
:1002B00060812F5F3F4F58E097FBEE27E0F9990FE1
:1002C00087FD9160880F47FD8160440F762F717024
:1002D000E71721F07BE54727E6E08E2766955A95DC
:1002E00059F7498F888F9F8B2815390501F78401AD
:1002F0007201F80181918F01D0DEF8018293C0165E
:10030000D106B9F789A1C9DE8260F20128E030E0A8
:1003100091E087FF05C041E1842740814927408360
:10032000880F990F21503040A1F73196EC15FD054B
:1003300069F78201F80181918F01AFDEF8018293A4
:10034000C016D106B9F7F10161911F0185E299DE6E
:100350006EE687E296DE8FDE81EE7FDE8EDE8BDE5E
:1003600082EE7BDE8ADE87DE80EA77DEF70181912E
:100370007F0173DEEC14FD04C9F77FDE969AF6E088
:10038000FA95F1F700C07BDE00EA1FE074DE8FEF24
:1003900064DEF82E72DE8F2D8073811103C0015050
:1003A0001040A1F760E387E26CDE46E6A41640E069
:1003B000B40609F049CF63DE60E180E262DEA89511
:1003C00085B7806285BF889585B78F7D85BF1DCF36
:0403D000F894FFCFCF
:0603D400021A5025262745
:00000001FF
